{
  "contractName": "StusInfo",
  "abi": [
    {
      "inputs": [
        {
          "internalType": "uint256",
          "name": "",
          "type": "uint256"
        }
      ],
      "name": "students",
      "outputs": [
        {
          "internalType": "string",
          "name": "name",
          "type": "string"
        },
        {
          "internalType": "uint256",
          "name": "age",
          "type": "uint256"
        },
        {
          "internalType": "string",
          "name": "gender",
          "type": "string"
        },
        {
          "internalType": "uint256",
          "name": "score",
          "type": "uint256"
        },
        {
          "internalType": "string",
          "name": "id",
          "type": "string"
        }
      ],
      "stateMutability": "view",
      "type": "function"
    },
    {
      "inputs": [
        {
          "internalType": "string",
          "name": "_name",
          "type": "string"
        },
        {
          "internalType": "uint256",
          "name": "_age",
          "type": "uint256"
        },
        {
          "internalType": "string",
          "name": "_gender",
          "type": "string"
        },
        {
          "internalType": "uint256",
          "name": "_score",
          "type": "uint256"
        }
      ],
      "name": "addStudent",
      "outputs": [],
      "stateMutability": "nonpayable",
      "type": "function"
    },
    {
      "inputs": [
        {
          "internalType": "uint256",
          "name": "_id",
          "type": "uint256"
        }
      ],
      "name": "getStudent",
      "outputs": [
        {
          "internalType": "string",
          "name": "",
          "type": "string"
        },
        {
          "internalType": "uint256",
          "name": "",
          "type": "uint256"
        },
        {
          "internalType": "string",
          "name": "",
          "type": "string"
        },
        {
          "internalType": "uint256",
          "name": "",
          "type": "uint256"
        },
        {
          "internalType": "string",
          "name": "",
          "type": "string"
        }
      ],
      "stateMutability": "view",
      "type": "function"
    }
  ],
  "bytecode": "0x608060405234801561000f575f80fd5b50610db48061001d5f395ff3fe608060405234801561000f575f80fd5b506004361061003f575f3560e01c806306ead22e14610043578063642f916314610077578063a03bdf5d146100ab575b5f80fd5b61005d60048036038101906100589190610720565b6100c7565b60405161006e9594939291906107e4565b60405180910390f35b610091600480360381019061008c9190610720565b610299565b6040516100a29594939291906107e4565b60405180910390f35b6100c560048036038101906100c091906108ab565b6104fd565b005b5f81815481106100d5575f80fd5b905f5260205f2090600502015f91509050805f0180546100f49061097b565b80601f01602080910402602001604051908101604052809291908181526020018280546101209061097b565b801561016b5780601f106101425761010080835404028352916020019161016b565b820191905f5260205f20905b81548152906001019060200180831161014e57829003601f168201915b5050505050908060010154908060020180546101869061097b565b80601f01602080910402602001604051908101604052809291908181526020018280546101b29061097b565b80156101fd5780601f106101d4576101008083540402835291602001916101fd565b820191905f5260205f20905b8154815290600101906020018083116101e057829003601f168201915b5050505050908060030154908060040180546102189061097b565b80601f01602080910402602001604051908101604052809291908181526020018280546102449061097b565b801561028f5780601f106102665761010080835404028352916020019161028f565b820191905f5260205f20905b81548152906001019060200180831161027257829003601f168201915b5050505050905085565b60605f60605f60605f86815481106102b4576102b36109ab565b5b905f5260205f2090600502015f015f87815481106102d5576102d46109ab565b5b905f5260205f209060050201600101545f88815481106102f8576102f76109ab565b5b905f5260205f2090600502016002015f898154811061031a576103196109ab565b5b905f5260205f209060050201600301545f8a8154811061033d5761033c6109ab565b5b905f5260205f2090600502016004018480546103589061097b565b80601f01602080910402602001604051908101604052809291908181526020018280546103849061097b565b80156103cf5780601f106103a6576101008083540402835291602001916103cf565b820191905f5260205f20905b8154815290600101906020018083116103b257829003601f168201915b505050505094508280546103e29061097b565b80601f016020809104026020016040519081016040528092919081815260200182805461040e9061097b565b80156104595780601f1061043057610100808354040283529160200191610459565b820191905f5260205f20905b81548152906001019060200180831161043c57829003601f168201915b5050505050925080805461046c9061097b565b80601f01602080910402602001604051908101604052809291908181526020018280546104989061097b565b80156104e35780601f106104ba576101008083540402835291602001916104e3565b820191905f5260205f20905b8154815290600101906020018083116104c657829003601f168201915b505050505090509450945094509450945091939590929450565b85858080601f0160208091040260200160405190810160405280939291908181526020018383808284375f81840152601f19601f820116905080830192505050505050505f815111610584576040517f08c379a000000000000000000000000000000000000000000000000000000000815260040161057b90610a22565b60405180910390fd5b5f8787878787876040516020016105a096959493929190610a9c565b60405160208183030381529060405290505f6040518060a001604052808a8a8080601f0160208091040260200160405190810160405280939291908181526020018383808284375f81840152601f19601f82011690508083019250505050505050815260200188815260200187878080601f0160208091040260200160405190810160405280939291908181526020018383808284375f81840152601f19601f82011690508083019250505050505050815260200185815260200183815250908060018154018082558091505060019003905f5260205f2090600502015f909190919091505f820151815f0190816106989190610caf565b506020820151816001015560408201518160020190816106b89190610caf565b506060820151816003015560808201518160040190816106d89190610caf565b5050505050505050505050565b5f80fd5b5f80fd5b5f819050919050565b6106ff816106ed565b8114610709575f80fd5b50565b5f8135905061071a816106f6565b92915050565b5f60208284031215610735576107346106e5565b5b5f6107428482850161070c565b91505092915050565b5f81519050919050565b5f82825260208201905092915050565b5f5b83811015610782578082015181840152602081019050610767565b5f8484015250505050565b5f601f19601f8301169050919050565b5f6107a78261074b565b6107b18185610755565b93506107c1818560208601610765565b6107ca8161078d565b840191505092915050565b6107de816106ed565b82525050565b5f60a0820190508181035f8301526107fc818861079d565b905061080b60208301876107d5565b818103604083015261081d818661079d565b905061082c60608301856107d5565b818103608083015261083e818461079d565b90509695505050505050565b5f80fd5b5f80fd5b5f80fd5b5f8083601f84011261086b5761086a61084a565b5b8235905067ffffffffffffffff8111156108885761088761084e565b5b6020830191508360018202830111156108a4576108a3610852565b5b9250929050565b5f805f805f80608087890312156108c5576108c46106e5565b5b5f87013567ffffffffffffffff8111156108e2576108e16106e9565b5b6108ee89828a01610856565b9650965050602061090189828a0161070c565b945050604087013567ffffffffffffffff811115610922576109216106e9565b5b61092e89828a01610856565b9350935050606061094189828a0161070c565b9150509295509295509295565b7f4e487b71000000000000000000000000000000000000000000000000000000005f52602260045260245ffd5b5f600282049050600182168061099257607f821691505b6020821081036109a5576109a461094e565b5b50919050565b7f4e487b71000000000000000000000000000000000000000000000000000000005f52603260045260245ffd5b7f4e616d65206973207265717569726564000000000000000000000000000000005f82015250565b5f610a0c601083610755565b9150610a17826109d8565b602082019050919050565b5f6020820190508181035f830152610a3981610a00565b9050919050565b5f81905092915050565b828183375f83830152505050565b5f610a638385610a40565b9350610a70838584610a4a565b82840190509392505050565b5f819050919050565b610a96610a91826106ed565b610a7c565b82525050565b5f610aa882888a610a58565b9150610ab48287610a85565b602082019150610ac5828587610a58565b9150610ad18284610a85565b602082019150819050979650505050505050565b7f4e487b71000000000000000000000000000000000000000000000000000000005f52604160045260245ffd5b5f819050815f5260205f209050919050565b5f6020601f8301049050919050565b5f82821b905092915050565b5f60088302610b6e7fffffffffffffffffffffffffffffffffffffffffffffffffffffffffffffffff82610b33565b610b788683610b33565b95508019841693508086168417925050509392505050565b5f819050919050565b5f610bb3610bae610ba9846106ed565b610b90565b6106ed565b9050919050565b5f819050919050565b610bcc83610b99565b610be0610bd882610bba565b848454610b3f565b825550505050565b5f90565b610bf4610be8565b610bff818484610bc3565b505050565b5b81811015610c2257610c175f82610bec565b600181019050610c05565b5050565b601f821115610c6757610c3881610b12565b610c4184610b24565b81016020851015610c50578190505b610c64610c5c85610b24565b830182610c04565b50505b505050565b5f82821c905092915050565b5f610c875f1984600802610c6c565b1980831691505092915050565b5f610c9f8383610c78565b9150826002028217905092915050565b610cb88261074b565b67ffffffffffffffff811115610cd157610cd0610ae5565b5b610cdb825461097b565b610ce6828285610c26565b5f60209050601f831160018114610d17575f8415610d05578287015190505b610d0f8582610c94565b865550610d76565b601f198416610d2586610b12565b5f5b82811015610d4c57848901518255600182019150602085019450602081019050610d27565b86831015610d695784890151610d65601f891682610c78565b8355505b6001600288020188555050505b50505050505056fea264697066735822122036f09d73276457fe09b036b4c71b2027ca80cf66cfe6172bf1701498371a616264736f6c63430008150033",
  "immutableReferences": {},
  "source": "// SPDX-License-Identifier: MIT\r\n\r\npragma solidity ^0.8.0;\r\n\r\ncontract StusInfo {\r\n    struct Student {\r\n        string name;\r\n        uint age;\r\n        string gender;\r\n        uint score;\r\n        string id;\r\n    }\r\n    \r\n    // \r\n    Student[] public students;\r\n    // \r\n    modifier verifyName(string memory _name) {\r\n        // solidity bytes\r\n        require(bytes(_name).length > 0, \"Name is required\");\r\n        _;\r\n    }\r\n\r\n    // \r\n    function addStudent(string calldata _name, uint _age, string calldata _gender, uint _score) public verifyName(_name) {\r\n        // abi.encodePacked \r\n        string memory _id = string(abi.encodePacked(_name, _age, _gender, _score));\r\n        students.push(Student({\r\n            name: _name,\r\n            age: _age,\r\n            gender: _gender,\r\n            score: _score,\r\n            id: _id\r\n        }));\r\n    }\r\n    // \r\n    function getStudent(uint _id) public view returns (string memory, uint, string memory, uint, string memory) {\r\n        // tuplereturn\r\n        return (students[_id].name, students[_id].age, students[_id].gender, students[_id].score, students[_id].id);\r\n    }\r\n}",
  "sourcePath": "C:\\Users\\33002\\Desktop\\web3_learn\\solidity\\contracts\\contracts\\StusInfo.sol",
  "compiler": {
    "name": "solc",
    "version": "0.8.21+commit.d9974bed.Emscripten.clang"
  },
  "schemaVersion": "3.4.16",
  "updatedAt": "2025-06-18T02:57:53.129Z",
  "devdoc": {
    "kind": "dev",
    "methods": {},
    "version": 1
  },
  "userdoc": {
    "kind": "user",
    "methods": {},
    "version": 1
  }
}