{
    "contractName": "Struct",
    "abi": [
        {
            "inputs": [
                {
                    "internalType": "string",
                    "name": "_text",
                    "type": "string"
                }
            ],
            "name": "create",
            "outputs": [],
            "stateMutability": "nonpayable",
            "type": "function"
        },
        {
            "inputs": [
                {
                    "internalType": "uint256",
                    "name": "",
                    "type": "uint256"
                }
            ],
            "name": "todos",
            "outputs": [
                {
                    "internalType": "string",
                    "name": "text",
                    "type": "string"
                },
                {
                    "internalType": "bool",
                    "name": "completed",
                    "type": "bool"
                }
            ],
            "stateMutability": "view",
            "type": "function"
        },
        {
            "inputs": [
                {
                    "internalType": "uint256",
                    "name": "_index",
                    "type": "uint256"
                },
                {
                    "internalType": "string",
                    "name": "_text",
                    "type": "string"
                }
            ],
            "name": "update",
            "outputs": [],
            "stateMutability": "nonpayable",
            "type": "function"
        }
    ],
    "bytecode": "60808060405234601557610567908161001a8239f35b5f80fdfe60806040526004361015610011575f80fd5b5f3560e01c8063b6a46b3b14610284578063bc8bc2b4146101905763f745630f1461003a575f80fd5b3461018c57604036600319011261018c5760243567ffffffffffffffff811161018c5761006b903690600401610457565b6100766004356104ad565b50815167ffffffffffffffff81116101785761009282546104f9565b601f8111610133575b50602092601f82116001146100d757928192935f926100cc575b50505f19600383901b1c191660019190911b179055005b015190505f806100b5565b601f19821693835f52805f20915f5b86811061011b5750836001959610610103575b505050811b019055005b01515f1960f88460031b161c191690555f80806100f9565b919260206001819286850151815501940192016100e6565b825f5260205f20601f830160051c8101916020841061016e575b601f0160051c01905b818110610163575061009b565b5f8155600101610156565b909150819061014d565b634e487b7160e01b5f52604160045260245ffd5b5f80fd5b3461018c57602036600319011261018c576004355f5481101561018c576101b6906104ad565b506040518154915f6101c7846104f9565b80845260208401946001811690811561026a575060011461022f575b50600183926101f860609560ff940385610435565b01541692604051938492604084525180928160408601528585015e5f83830185015215156020830152601f01601f19168101030190f35b5f838152602081209092505b818310610250575050820160200160016101e3565b60018160209294939454838589010152019101919061023b565b60ff1916865250151560051b8301602001905060016101e3565b3461018c57602036600319011261018c5760043567ffffffffffffffff811161018c576102b5903690600401610457565b604051906040820182811067ffffffffffffffff821117610178576040528152602081015f81525f5468010000000000000000811015610178578060016102fe92015f556104ad565b929092610422575191825167ffffffffffffffff81116101785761032282546104f9565b601f81116103dd575b506020601f8211600114610379578190600194955f9261036e575b50505f19600383901b1c191690831b1781555b019051151560ff801983541691161790555f80f35b015190508580610346565b601f19821694835f52815f20955f5b8181106103c5575091600195969184879594106103ad575b505050811b018155610359565b01515f1960f88460031b161c191690558580806103a0565b83830151885560019097019660209384019301610388565b825f5260205f20601f830160051c81019160208410610418575b601f0160051c01905b81811061040d575061032b565b5f8155600101610400565b90915081906103f7565b634e487b7160e01b5f525f60045260245ffd5b90601f8019910116810190811067ffffffffffffffff82111761017857604052565b81601f8201121561018c5780359067ffffffffffffffff8211610178576040519261048c601f8401601f191660200185610435565b8284526020838301011161018c57815f926020809301838601378301015290565b5f548110156104e5575f80805260019190911b7f290decd9548b62a8d60345a988386fc84ba6bc95484008f6362f93160ef3e5630191565b634e487b7160e01b5f52603260045260245ffd5b90600182811c92168015610527575b602083101461051357565b634e487b7160e01b5f52602260045260245ffd5b91607f169161050856fea2646970667358221220bb7b2620e21f55d22de552c3059409ce42957712092bd1aaee5ad3471a2f91af64736f6c634300081e0033",
    "sourcePath": "/Users/richard/Desktop/web3_learn/solidity/struct.sol",
    "compiler": {
        "name": "solc",
        "version": "0.8.30+commit.73712a01"
    },
    "functionHashes": {
        "create(string)": "b6a46b3b",
        "todos(uint256)": "bc8bc2b4",
        "update(uint256,string)": "f745630f"
    },
    "gasEstimates": {
        "creation": {
            "codeDepositCost": "276600",
            "executionCost": "325",
            "totalCost": "276925"
        },
        "external": {
            "create(string)": "infinite",
            "todos(uint256)": "infinite",
            "update(uint256,string)": "infinite"
        }
    }
}